{
  "abi": [
    {
      "inputs": [],
      "stateMutability": "nonpayable",
      "type": "constructor"
    },
    {
      "anonymous": false,
      "inputs": [
        {
          "indexed": false,
          "internalType": "address",
          "name": "votingAddr",
          "type": "address"
        },
        {
          "indexed": false,
          "internalType": "address",
          "name": "overseer",
          "type": "address"
        }
      ],
      "name": "CreateElection",
      "type": "event"
    },
    {
      "inputs": [],
      "name": "Moderator",
      "outputs": [
        {
          "internalType": "address",
          "name": "",
          "type": "address"
        }
      ],
      "stateMutability": "view",
      "type": "function"
    },
    {
      "inputs": [
        {
          "internalType": "uint256",
          "name": "",
          "type": "uint256"
        }
      ],
      "name": "contestToID",
      "outputs": [
        {
          "internalType": "uint256",
          "name": "_voteID",
          "type": "uint256"
        },
        {
          "internalType": "bool",
          "name": "_idRegd",
          "type": "bool"
        },
        {
          "internalType": "address",
          "name": "_overseer",
          "type": "address"
        },
        {
          "internalType": "address",
          "name": "_election",
          "type": "address"
        },
        {
          "internalType": "string",
          "name": "_contest",
          "type": "string"
        }
      ],
      "stateMutability": "view",
      "type": "function"
    },
    {
      "inputs": [
        {
          "internalType": "uint256",
          "name": "voteId",
          "type": "uint256"
        },
        {
          "internalType": "string",
          "name": "name_",
          "type": "string"
        },
        {
          "internalType": "string",
          "name": "symbol_",
          "type": "string"
        },
        {
          "internalType": "string",
          "name": "tokenUri",
          "type": "string"
        },
        {
          "internalType": "string",
          "name": "_contest",
          "type": "string"
        },
        {
          "internalType": "uint256",
          "name": "start",
          "type": "uint256"
        }
      ],
      "name": "createElection",
      "outputs": [
        {
          "internalType": "address",
          "name": "childElection",
          "type": "address"
        }
      ],
      "stateMutability": "nonpayable",
      "type": "function"
    },
    {
      "inputs": [
        {
          "internalType": "uint256",
          "name": "",
          "type": "uint256"
        }
      ],
      "name": "elections",
      "outputs": [
        {
          "internalType": "address",
          "name": "",
          "type": "address"
        }
      ],
      "stateMutability": "view",
      "type": "function"
    },
    {
      "inputs": [],
      "name": "nElections",
      "outputs": [
        {
          "internalType": "uint256",
          "name": "totalElections",
          "type": "uint256"
        }
      ],
      "stateMutability": "view",
      "type": "function"
    },
    {
      "inputs": [
        {
          "internalType": "uint256",
          "name": "voteId",
          "type": "uint256"
        }
      ],
      "name": "rc",
      "outputs": [
        {
          "components": [
            {
              "internalType": "uint256",
              "name": "_voteID",
              "type": "uint256"
            },
            {
              "internalType": "bool",
              "name": "_idRegd",
              "type": "bool"
            },
            {
              "internalType": "address",
              "name": "_overseer",
              "type": "address"
            },
            {
              "internalType": "address",
              "name": "_election",
              "type": "address"
            },
            {
              "internalType": "string",
              "name": "_contest",
              "type": "string"
            }
          ],
          "internalType": "struct votingFactory.Contest",
          "name": "",
          "type": "tuple"
        }
      ],
      "stateMutability": "view",
      "type": "function"
    },
    {
      "inputs": [
        {
          "internalType": "address",
          "name": "newMod",
          "type": "address"
        }
      ],
      "name": "replcModerator",
      "outputs": [],
      "stateMutability": "nonpayable",
      "type": "function"
    },
    {
      "inputs": [
        {
          "internalType": "address",
          "name": "electionAddr",
          "type": "address"
        }
      ],
      "name": "retElectionID",
      "outputs": [
        {
          "internalType": "uint256",
          "name": "Id",
          "type": "uint256"
        }
      ],
      "stateMutability": "view",
      "type": "function"
    },
    {
      "inputs": [],
      "name": "retElections",
      "outputs": [
        {
          "internalType": "address[]",
          "name": "",
          "type": "address[]"
        }
      ],
      "stateMutability": "view",
      "type": "function"
    },
    {
      "inputs": [
        {
          "internalType": "address",
          "name": "to",
          "type": "address"
        },
        {
          "internalType": "uint256",
          "name": "amount",
          "type": "uint256"
        }
      ],
      "name": "wthr",
      "outputs": [],
      "stateMutability": "nonpayable",
      "type": "function"
    },
    {
      "stateMutability": "payable",
      "type": "receive"
    }
  ],
  "bytecode": {
    "object": "0x608060405234801561001057600080fd5b50600380546001600160a01b03191633179055614e48806100326000396000f3fe608060405260043610620000a15760003560e01c8063abbe84681162000060578063abbe846814620001b6578063ad1bc71f14620001db578063b839a99514620001f2578063cbf561981462000219578063ceb1e32d146200025157600080fd5b806336a4993214620000ae5780635e6fef0114620000d5578063649fa13f14620001175780636bf8a5f6146200014b57806396e39914146200016d57600080fd5b36620000a957005b600080fd5b348015620000bb57600080fd5b50620000d3620000cd366004620009d5565b62000276565b005b348015620000e257600080fd5b50620000fa620000f436600462000a02565b62000388565b6040516001600160a01b0390911681526020015b60405180910390f35b3480156200012457600080fd5b506200013c6200013636600462000a02565b620003b3565b6040516200010e919062000a64565b3480156200015857600080fd5b50600354620000fa906001600160a01b031681565b3480156200017a57600080fd5b50620001a76200018c36600462000ac1565b6001600160a01b031660009081526001602052604090205490565b6040519081526020016200010e565b348015620001c357600080fd5b50620000d3620001d536600462000ac1565b620004f5565b348015620001e857600080fd5b50600254620001a7565b348015620001ff57600080fd5b506200020a62000587565b6040516200010e919062000ae6565b3480156200022657600080fd5b506200023e6200023836600462000a02565b620005eb565b6040516200010e95949392919062000b35565b3480156200025e57600080fd5b50620000fa6200027036600462000bc8565b620006be565b6003546001600160a01b031633146200028e57600080fd5b6001600160a01b038216620002dc5760405162461bcd60e51b815260206004820152600f60248201526e0777468723a20416464726573735f3608c1b60448201526064015b60405180910390fd5b6000826001600160a01b03168260405160006040518083038185875af1925050503d80600081146200032b576040519150601f19603f3d011682016040523d82523d6000602084013e62000330565b606091505b5050905080620003835760405162461bcd60e51b815260206004820152601b60248201527f777468723a204574686572207769746864726177206661696c2e2e00000000006044820152606401620002d3565b505050565b600281815481106200039957600080fd5b6000918252602090912001546001600160a01b0316905081565b620003fa6040518060a001604052806000815260200160001515815260200160006001600160a01b0316815260200160006001600160a01b03168152602001606081525090565b60008281526020818152604091829020825160a08101845281548152600182015460ff81161515938201939093526101009092046001600160a01b03908116938301939093526002810154909216606082015260038201805483916080840191620004659062000caf565b80601f0160208091040260200160405190810160405280929190818152602001828054620004939062000caf565b8015620004e45780601f10620004b857610100808354040283529160200191620004e4565b820191906000526020600020905b815481529060010190602001808311620004c657829003601f168201915b505050505081525050915050919050565b6003546001600160a01b031633146200050d57600080fd5b6001600160a01b038116620005655760405162461bcd60e51b815260206004820152601b60248201527f7265706c6163654d6f64657261746f723a20416464726573735f3000000000006044820152606401620002d3565b600380546001600160a01b0319166001600160a01b0392909216919091179055565b60606002805480602002602001604051908101604052809291908181526020018280548015620005e157602002820191906000526020600020905b81546001600160a01b03168152600190910190602001808311620005c2575b5050505050905090565b6000602081905290815260409020805460018201546002830154600384018054939460ff8416946101009094046001600160a01b0390811694931692909190620006359062000caf565b80601f0160208091040260200160405190810160405280929190818152602001828054620006639062000caf565b8015620006b45780601f106200068857610100808354040283529160200191620006b4565b820191906000526020600020905b8154815290600101906020018083116200069657829003601f168201915b5050505050905085565b60008a815260208190526040812080548c036200071e5760405162461bcd60e51b815260206004820152601860248201527f637265617465456c656374696f6e3a2049442074616b656e00000000000000006044820152606401620002d3565b82421115620007705760405162461bcd60e51b815260206004820152601c60248201527f637265617465456c656374696f6e3a20496e76616c69642074696d65000000006044820152606401620002d3565b60408051602080820152600091810182905260600160405160208183030381529060405280519060200120905060008888604051602001620007b492919062000d14565b6040516020818303038152906040528051906020012090508181036200081d5760405162461bcd60e51b815260206004820152601960248201527f637265617465456c656374696f6e3a20456d70747920757269000000000000006044820152606401620002d3565b60008d8d8d8d8d8d8d8d33600360009054906101000a90046001600160a01b03168f6040516200084d90620009aa565b620008639b9a9998979695949392919062000d2a565b604051809103906000f08015801562000880573d6000803e3d6000fd5b508f8555600180860180546001600160a81b03191661010033021790911790556002850180546001600160a01b0319166001600160a01b03831617905590508060038501620008d1898b8362000e16565b508f60016000836001600160a01b03166001600160a01b03168152602001908152602001600020819055506002819080600181540180825580915050600190039060005260206000200160009091909190916101000a8154816001600160a01b0302191690836001600160a01b031602179055508095507f4b378a15b2be7132054aa4b7df12cfbb5b62a9c6a909dc7d814d17cc9cdf23fd81336040516200098f9291906001600160a01b0392831681529116602082015260400190565b60405180910390a150505050509a9950505050505050505050565b613f2e8062000ee583390190565b80356001600160a01b0381168114620009d057600080fd5b919050565b60008060408385031215620009e957600080fd5b620009f483620009b8565b946020939093013593505050565b60006020828403121562000a1557600080fd5b5035919050565b6000815180845260005b8181101562000a445760208185018101518683018201520162000a26565b506000602082860101526020601f19601f83011685010191505092915050565b60208152815160208201526020820151151560408201526000604083015160018060a01b0380821660608501528060608601511660808501525050608083015160a08084015262000ab960c084018262000a1c565b949350505050565b60006020828403121562000ad457600080fd5b62000adf82620009b8565b9392505050565b6020808252825182820181905260009190848201906040850190845b8181101562000b295783516001600160a01b03168352928401929184019160010162000b02565b50909695505050505050565b85815284151560208201526001600160a01b0384811660408301528316606082015260a06080820181905260009062000b719083018462000a1c565b979650505050505050565b60008083601f84011262000b8f57600080fd5b50813567ffffffffffffffff81111562000ba857600080fd5b60208301915083602082850101111562000bc157600080fd5b9250929050565b60008060008060008060008060008060c08b8d03121562000be857600080fd5b8a35995060208b013567ffffffffffffffff8082111562000c0857600080fd5b62000c168e838f0162000b7c565b909b50995060408d013591508082111562000c3057600080fd5b62000c3e8e838f0162000b7c565b909950975060608d013591508082111562000c5857600080fd5b62000c668e838f0162000b7c565b909750955060808d013591508082111562000c8057600080fd5b5062000c8f8d828e0162000b7c565b9150809450508092505060a08b013590509295989b9194979a5092959850565b600181811c9082168062000cc457607f821691505b60208210810362000ce557634e487b7160e01b600052602260045260246000fd5b50919050565b81835281816020850137506000828201602090810191909152601f909101601f19169091010190565b60208152600062000ab960208301848662000ceb565b60e08152600062000d4060e083018d8f62000ceb565b828103602084015262000d55818c8e62000ceb565b9050828103604084015262000d6c818a8c62000ceb565b9050828103606084015262000d8381888a62000ceb565b6001600160a01b0396871660808501529490951660a08301525060c001529998505050505050505050565b634e487b7160e01b600052604160045260246000fd5b601f8211156200038357600081815260208120601f850160051c8101602086101562000ded5750805b601f850160051c820191505b8181101562000e0e5782815560010162000df9565b505050505050565b67ffffffffffffffff83111562000e315762000e3162000dae565b62000e498362000e42835462000caf565b8362000dc4565b6000601f84116001811462000e80576000851562000e675750838201355b600019600387901b1c1916600186901b17835562000edd565b600083815260209020601f19861690835b8281101562000eb3578685013582556020948501946001909201910162000e91565b508682101562000ed15760001960f88860031b161c19848701351681555b505060018560011b0183555b505050505056fe60806040523480156200001157600080fd5b5060405162003f2e38038062003f2e8339810160408190526200003491620001dc565b8686600062000044838262000353565b50600162000053828262000353565b5050600e80546001600160a01b038086166001600160a01b031992831617909255600f805492871692909116919091179055506008819055600a62000099858262000353565b50600b620000a8868262000353565b5060408051808201909152601581527f68747470733a2f2f697066732e696f2f697066732f00000000000000000000006020820152600c90620000ec908262000353565b50505050505050506200041f565b634e487b7160e01b600052604160045260246000fd5b600082601f8301126200012257600080fd5b81516001600160401b03808211156200013f576200013f620000fa565b604051601f8301601f19908116603f011681019082821181831017156200016a576200016a620000fa565b816040528381526020925086838588010111156200018757600080fd5b600091505b83821015620001ab57858201830151818301840152908201906200018c565b600093810190920192909252949350505050565b80516001600160a01b0381168114620001d757600080fd5b919050565b600080600080600080600060e0888a031215620001f857600080fd5b87516001600160401b03808211156200021057600080fd5b6200021e8b838c0162000110565b985060208a01519150808211156200023557600080fd5b620002438b838c0162000110565b975060408a01519150808211156200025a57600080fd5b620002688b838c0162000110565b965060608a01519150808211156200027f57600080fd5b506200028e8a828b0162000110565b9450506200029f60808901620001bf565b9250620002af60a08901620001bf565b915060c0880151905092959891949750929550565b600181811c90821680620002d957607f821691505b602082108103620002fa57634e487b7160e01b600052602260045260246000fd5b50919050565b601f8211156200034e57600081815260208120601f850160051c81016020861015620003295750805b601f850160051c820191505b818110156200034a5782815560010162000335565b5050505b505050565b81516001600160401b038111156200036f576200036f620000fa565b6200038781620003808454620002c4565b8462000300565b602080601f831160018114620003bf5760008415620003a65750858301515b600019600386901b1c1916600185901b1785556200034a565b600085815260208120601f198616915b82811015620003f057888601518255948401946001909101908401620003cf565b50858210156200040f5787850151600019600388901b60f8161c191681555b5050505050600190811b01905550565b613aff806200042f6000396000f3fe608060405234801561001057600080fd5b50600436106101f05760003560e01c80638bfaa2b81161010f578063c87b56dd116100a2578063e238416011610071578063e238416014610569578063e2ba53f014610589578063e985e9c51461059f578063ef09a5ea146105b257600080fd5b8063c87b56dd14610504578063c90ae55a14610517578063de4781dd14610543578063dfbf53ae1461055657600080fd5b8063b88d4fde116100de578063b88d4fde146104c3578063b9223946146104d6578063bb9c6c3e146104de578063bf4c988e146104f157600080fd5b80638bfaa2b81461041d57806395d89b4114610432578063a22cb4651461043a578063a3ec138d1461044d57600080fd5b80633f220524116101875780636352211e116101565780636352211e146103dc5780636dd7d8ea146103ef57806370a082311461040257806388d3ab961461041557600080fd5b80633f2205241461038957806342842e0e1461039c5780634b1d3ede146103af5780634ba25656146103c957600080fd5b80630d15fd77116101c35780630d15fd771461027257806323b872dd146102895780632f2fcf2b1461029c5780633477ee2e1461036357600080fd5b806301ffc9a7146101f557806306fdde031461021d578063081812fc14610232578063095ea7b31461025d575b600080fd5b610208610203366004612f77565b6105c5565b60405190151581526020015b60405180910390f35b6102256105d6565b6040516102149190612fe4565b610245610240366004612ff7565b610668565b6040516001600160a01b039091168152602001610214565b61027061026b366004613027565b61068f565b005b61027b60115481565b604051908152602001610214565b610270610297366004613051565b6107a9565b6103236102aa36600461308d565b60408051608080820183526000808352602080840182905283850182905260609384018290526001600160a01b03958616825260148152908490208451928301855280548352600101549485169082015260ff600160a01b85048116151593820193909352600160a81b90930490911615159082015290565b6040516102149190815181526020808301516001600160a01b03169082015260408083015115159082015260609182015115159181019190915260800190565b610376610371366004612ff7565b6107da565b60405161021497969594939291906130a8565b610270610397366004612ff7565b6109d1565b6102706103aa366004613051565b610b43565b6103b7610b5e565b60405161021496959493929190613112565b600f54610245906001600160a01b031681565b6102456103ea366004612ff7565b610d1e565b6102706103fd36600461308d565b610d7e565b61027b61041036600461308d565b610ff0565b60115461027b565b610425611076565b604051610214919061316d565b61022561129a565b6102706104483660046131f2565b6112a9565b61049361045b36600461308d565b601460205260009081526040902080546001909101546001600160a01b0381169060ff600160a01b8204811691600160a81b90041684565b604080519485526001600160a01b0390931660208501529015159183019190915215156060820152608001610214565b6102706104d1366004613244565b6112b8565b6102706112ea565b6102086104ec366004613369565b6113a4565b6103766104ff36600461308d565b61156d565b610225610512366004612ff7565b6115a7565b61027b61052536600461308d565b6001600160a01b031660009081526013602052604090206001015490565b6102706105513660046133ab565b6116a3565b601054610245906001600160a01b031681565b61057c61057736600461308d565b611b2f565b604051610214919061345f565b610591612060565b60405161021492919061353a565b6102086105ad36600461355e565b61211a565b600e54610245906001600160a01b031681565b60006105d082612148565b92915050565b6060600080546105e590613591565b80601f016020809104026020016040519081016040528092919081815260200182805461061190613591565b801561065e5780601f106106335761010080835404028352916020019161065e565b820191906000526020600020905b81548152906001019060200180831161064157829003601f168201915b5050505050905090565b60006106738261216d565b506000908152600460205260409020546001600160a01b031690565b600061069a82610d1e565b9050806001600160a01b0316836001600160a01b03160361070c5760405162461bcd60e51b815260206004820152602160248201527f4552433732313a20617070726f76616c20746f2063757272656e74206f776e656044820152603960f91b60648201526084015b60405180910390fd5b336001600160a01b03821614806107285750610728813361211a565b61079a5760405162461bcd60e51b815260206004820152603d60248201527f4552433732313a20617070726f76652063616c6c6572206973206e6f7420746f60448201527f6b656e206f776e6572206f7220617070726f76656420666f7220616c6c0000006064820152608401610703565b6107a483836121cf565b505050565b6107b3338261223d565b6107cf5760405162461bcd60e51b8152600401610703906135cb565b6107a483838361229b565b601681815481106107ea57600080fd5b6000918252602090912060079091020180546001820154600283015460038401805493955091936001600160a01b039091169290919061082990613591565b80601f016020809104026020016040519081016040528092919081815260200182805461085590613591565b80156108a25780601f10610877576101008083540402835291602001916108a2565b820191906000526020600020905b81548152906001019060200180831161088557829003601f168201915b5050505050908060040180546108b790613591565b80601f01602080910402602001604051908101604052809291908181526020018280546108e390613591565b80156109305780601f1061090557610100808354040283529160200191610930565b820191906000526020600020905b81548152906001019060200180831161091357829003601f168201915b50505050509080600501805461094590613591565b80601f016020809104026020016040519081016040528092919081815260200182805461097190613591565b80156109be5780601f10610993576101008083540402835291602001916109be565b820191906000526020600020905b8154815290600101906020018083116109a157829003601f168201915b5050506006909301549192505060ff1687565b600f546001600160a01b031633146109e857600080fd5b600854811015610a3a5760405162461bcd60e51b815260206004820152601760248201527f7374617274566f74653a20496e76616c69642074696d650000000000000000006044820152606401610703565b601654610a955760405162461bcd60e51b815260206004820152602360248201527f7374617274566f74653a204e6f20726567697374657265642063616e6469646160448201526274657360e81b6064820152608401610703565b600d5460ff1615610ae85760405162461bcd60e51b815260206004820181905260248201527f73746172743a20566f74696e6720616c726561647920696e2073657373696f6e6044820152606401610703565b600854421015610b315760405162461bcd60e51b815260206004820152601460248201527373746172743a206e6f7420737461727454696d6560601b6044820152606401610703565b600955600d805460ff19166001179055565b6107a4838383604051806020016040528060008152506112b8565b60088054600954600a805492939192610b7690613591565b80601f0160208091040260200160405190810160405280929190818152602001828054610ba290613591565b8015610bef5780601f10610bc457610100808354040283529160200191610bef565b820191906000526020600020905b815481529060010190602001808311610bd257829003601f168201915b505050505090806003018054610c0490613591565b80601f0160208091040260200160405190810160405280929190818152602001828054610c3090613591565b8015610c7d5780601f10610c5257610100808354040283529160200191610c7d565b820191906000526020600020905b815481529060010190602001808311610c6057829003601f168201915b505050505090806004018054610c9290613591565b80601f0160208091040260200160405190810160405280929190818152602001828054610cbe90613591565b8015610d0b5780601f10610ce057610100808354040283529160200191610d0b565b820191906000526020600020905b815481529060010190602001808311610cee57829003601f168201915b5050506005909301549192505060ff1686565b6000818152600260205260408120546001600160a01b0316806105d05760405162461bcd60e51b8152602060048201526018602482015277115490cdcc8c4e881a5b9d985b1a59081d1bdad95b88125160421b6044820152606401610703565b600b80543391600091610d9090613591565b80601f0160208091040260200160405190810160405280929190818152602001828054610dbc90613591565b8015610e095780601f10610dde57610100808354040283529160200191610e09565b820191906000526020600020905b815481529060010190602001808311610dec57829003601f168201915b505050505090506000610e1b60075490565b9050610e2b600780546001019055565b600d5460ff16610e7d5760405162461bcd60e51b815260206004820152601860248201527f766f74653a20566f74696e67206e6f74207374617274656400000000000000006044820152606401610703565b6001600160a01b038316600090815260146020526040902060010154600160a01b900460ff16610ee45760405162461bcd60e51b81526020600482015260126024820152711d9bdd194e88139bdd081d995c9a599a595960721b6044820152606401610703565b6001600160a01b038316600090815260146020526040902060010154600160a81b900460ff1615610f455760405162461bcd60e51b815260206004820152600b60248201526a1d9bdd194e88159bdd195960aa1b6044820152606401610703565b6001600160a01b03841660009081526013602052604090206006015460ff16610fb05760405162461bcd60e51b815260206004820152601c60248201527f766f74653a2043616e646964617465206469737175616c6966696564000000006044820152606401610703565b6001600160a01b038085166000818152601360205260409020600201549091169003610fea57610fdf8461240c565b610fea338284612562565b50505050565b60006001600160a01b03821661105a5760405162461bcd60e51b815260206004820152602960248201527f4552433732313a2061646472657373207a65726f206973206e6f7420612076616044820152683634b21037bbb732b960b91b6064820152608401610703565b506001600160a01b031660009081526003602052604090205490565b6110b16040518060c0016040528060008152602001600081526020016060815260200160608152602001606081526020016000151581525090565b6040805160c0810182526008805482526009546020830152600a805492939192918401916110de90613591565b80601f016020809104026020016040519081016040528092919081815260200182805461110a90613591565b80156111575780601f1061112c57610100808354040283529160200191611157565b820191906000526020600020905b81548152906001019060200180831161113a57829003601f168201915b5050505050815260200160038201805461117090613591565b80601f016020809104026020016040519081016040528092919081815260200182805461119c90613591565b80156111e95780601f106111be576101008083540402835291602001916111e9565b820191906000526020600020905b8154815290600101906020018083116111cc57829003601f168201915b5050505050815260200160048201805461120290613591565b80601f016020809104026020016040519081016040528092919081815260200182805461122e90613591565b801561127b5780601f106112505761010080835404028352916020019161127b565b820191906000526020600020905b81548152906001019060200180831161125e57829003601f168201915b50505091835250506005919091015460ff161515602090910152919050565b6060600180546105e590613591565b6112b4338383612576565b5050565b6112c2338361223d565b6112de5760405162461bcd60e51b8152600401610703906135cb565b610fea84848484612644565b600f546001600160a01b0316331461130157600080fd5b600d5460ff166113535760405162461bcd60e51b815260206004820152601a60248201527f656e643a20566f74696e67206e6f7420696e2073657373696f6e0000000000006044820152606401610703565b6009544210156113985760405162461bcd60e51b815260206004820152601060248201526f656e643a206e6f7420656e6454696d6560801b6044820152606401610703565b600d805460ff19169055565b3360009081526014602052604081206001810154600160a01b900460ff161561140f5760405162461bcd60e51b815260206004820152601860248201527f7665726966793a20416c726561647920766572696669656400000000000000006044820152606401610703565b60008484604051602001611424929190613641565b60405160208183030381529060405280519060200120905060005b6015548110156114c757816015828154811061145d5761145d613655565b9060005260206000200154036114b55760405162461bcd60e51b815260206004820152601e60248201527f7665726966793a20564e20616c726561647920696e20646174616261736500006044820152606401610703565b806114bf81613681565b91505061143f565b5060158054600181810183556000929092527f55f448fdea98c4d29eb340757ef0a66cd03dbb9538908a6a81d96026b71ec475018290558183558201805460ff60a01b19339081166001600160a81b031990921691909117600160a01b179091556040517fde4a3ec4788cca45e3b5027338a0ccb00ffb9934ab4db15273e7c2be929faa819161155a918890889061369a565b60405180910390a1506001949350505050565b6013602052600090815260409020805460018201546002830154600384018054939492936001600160a01b03909216929161082990613591565b60606115b28261216d565b6000600860030180546115c490613591565b80601f01602080910402602001604051908101604052809291908181526020018280546115f090613591565b801561163d5780601f106116125761010080835404028352916020019161163d565b820191906000526020600020905b81548152906001019060200180831161162057829003601f168201915b50505050509050600061164e612677565b90508051600003611660575092915050565b81511561169257808260405160200161167a9291906136c8565b60405160208183030381529060405292505050919050565b61169b84612689565b949350505050565b600f546001600160a01b031633146116ba57600080fd5b6001600160a01b0387166117105760405162461bcd60e51b815260206004820152601760248201527f61646443616e6469646174653a20416464726573735f300000000000000000006044820152606401610703565b6001600160a01b038088166000818152601360205260409020600201549091160361177d5760405162461bcd60e51b815260206004820152601b60248201527f61646443616e6469646174653a20416c726561647920616464656400000000006044820152606401610703565b876000036117cd5760405162461bcd60e51b815260206004820152601960248201527f61646443616e6469646174653a20496e76616c696420616765000000000000006044820152606401610703565b6040805160208082015260009181018290526060016040516020818303038152906040528051906020012090506000878760405160200161180f929190613641565b6040516020818303038152906040528051906020012090506000848460405160200161183c929190613641565b6040516020818303038152906040528051906020012090508282148061186157508281145b156118b95760405162461bcd60e51b815260206004820152602260248201527f61646443616e6469646174653a20496e76616c6964206e616d65206f72206465604482015261736360f01b6064820152608401610703565b6001600160a01b038a1660008181526013602052604090208c81556002810180546001600160a01b0319169092179091556003016118f8898b8361375a565b506001600160a01b038a16600090815260136020526040902060040161191f87898361375a565b506001600160a01b038a16600090815260136020526040902060050161194685878361375a565b506001600160a01b038a166000818152601360209081526040808320600601805460ff19166001179055805160e0810182528f815280830193909352828101939093528251601f8c018290048202810182019093528a835260169260608301918d908d9081908401838280828437600092019190915250505090825250604080516020601f8c018190048102820181019092528a815291810191908b908b9081908401838280828437600092019190915250505090825250604080516020601f8a018190048102820181019092528881529181019190899089908190840183828082843760009201829052509385525050600160209384018190528554808201875595835291839020845160079096020194855550908201519083015560408101516002830180546001600160a01b0319166001600160a01b0390921691909117905560608101519091906003820190611aa09082613815565b5060808201516004820190611ab59082613815565b5060a08201516005820190611aca9082613815565b5060c091909101516006909101805460ff19169115159190911790556040517f5bb45dc6ac3dd50be655bc38a332c9d6e6e37334d4fba7e9bb9f040cc096496b90611b1a908c908a908a9061369a565b60405180910390a15050505050505050505050565b600f546060906001600160a01b03163314611b4957600080fd5b6001600160a01b03821660009081526013602052604090206006015460ff16611bc85760405162461bcd60e51b815260206004820152602b60248201527f726d43616e6469646174653a2043616e64696461746520616c7265616479206460448201526a1a5cdc5d585b1a599a595960aa1b6064820152608401610703565b6001600160a01b038083166000818152601360205260409020600201549091169003611e0d576001600160a01b0382166000908152601360205260408120818155600181018290556002810180546001600160a01b031916905590611c306003830182612f13565b611c3e600483016000612f13565b611c4c600583016000612f13565b50600601805460ff191690556000611c638361276c565b6016549091508103611cb75760405162461bcd60e51b815260206004820181905260248201527f726d43616e6469646174653a2043616e646964617465206e6f7420666f756e646044820152606401610703565b60168054611cc7906001906138cf565b81548110611cd757611cd7613655565b906000526020600020906007020160168281548110611cf857611cf8613655565b6000918252602090912082546007909202019081556001808301549082015560028083015490820180546001600160a01b0319166001600160a01b03909216919091179055600380820190611d4f908401826138e2565b50600481810190611d62908401826138e2565b50600581810190611d75908401826138e2565b506006918201549101805460ff191660ff90921615159190911790556016805480611da257611da26139af565b600082815260208120600760001990930192830201818155600181018290556002810180546001600160a01b031916905590611de16003830182612f13565b611def600483016000612f13565b611dfd600583016000612f13565b50600601805460ff191690559055505b6016805480602002602001604051908101604052809291908181526020016000905b828210156120545760008481526020908190206040805160e081018252600786029092018054835260018101549383019390935260028301546001600160a01b031690820152600382018054919291606084019190611e8d90613591565b80601f0160208091040260200160405190810160405280929190818152602001828054611eb990613591565b8015611f065780601f10611edb57610100808354040283529160200191611f06565b820191906000526020600020905b815481529060010190602001808311611ee957829003601f168201915b50505050508152602001600482018054611f1f90613591565b80601f0160208091040260200160405190810160405280929190818152602001828054611f4b90613591565b8015611f985780601f10611f6d57610100808354040283529160200191611f98565b820191906000526020600020905b815481529060010190602001808311611f7b57829003601f168201915b50505050508152602001600582018054611fb190613591565b80601f0160208091040260200160405190810160405280929190818152602001828054611fdd90613591565b801561202a5780601f10611fff5761010080835404028352916020019161202a565b820191906000526020600020905b81548152906001019060200180831161200d57829003601f168201915b50505091835250506006919091015460ff1615156020918201529082526001929092019101611e2f565b5050505090505b919050565b6010546001600160a01b0316600081815260136020526040812060030180549192606092909190819061209290613591565b80601f01602080910402602001604051908101604052809291908181526020018280546120be90613591565b801561210b5780601f106120e05761010080835404028352916020019161210b565b820191906000526020600020905b8154815290600101906020018083116120ee57829003601f168201915b50505050509050915091509091565b6001600160a01b03918216600090815260056020908152604080832093909416825291909152205460ff1690565b60006001600160e01b03198216632483248360e11b14806105d057506105d082612800565b6000818152600260205260409020546001600160a01b03166121cc5760405162461bcd60e51b8152602060048201526018602482015277115490cdcc8c4e881a5b9d985b1a59081d1bdad95b88125160421b6044820152606401610703565b50565b600081815260046020526040902080546001600160a01b0319166001600160a01b038416908117909155819061220482610d1e565b6001600160a01b03167f8c5be1e5ebec7d5bd14f71427d1e84f3dd0314c0f7b2291e5b200ac8c7c3b92560405160405180910390a45050565b60008061224983610d1e565b9050806001600160a01b0316846001600160a01b031614806122705750612270818561211a565b8061169b5750836001600160a01b031661228984610668565b6001600160a01b031614949350505050565b826001600160a01b03166122ae82610d1e565b6001600160a01b0316146122d45760405162461bcd60e51b8152600401610703906139c5565b6001600160a01b0382166123365760405162461bcd60e51b8152602060048201526024808201527f4552433732313a207472616e7366657220746f20746865207a65726f206164646044820152637265737360e01b6064820152608401610703565b6123438383836001612850565b826001600160a01b031661235682610d1e565b6001600160a01b03161461237c5760405162461bcd60e51b8152600401610703906139c5565b600081815260046020908152604080832080546001600160a01b03199081169091556001600160a01b0387811680865260038552838620805460001901905590871680865283862080546001019055868652600290945282852080549092168417909155905184937fddf252ad1be2c89b69c2b068fc378daa952ba7f163c4a11628f55a4df523b3ef91a4505050565b336000908152601460205260408120600101805460ff60a81b1916600160a81b1790555b6016548110156112b457816001600160a01b03166016828154811061245757612457613655565b60009182526020909120600260079092020101546001600160a01b0316036125505760016016828154811061248e5761248e613655565b906000526020600020906007020160010160008282546124ae9190613a0a565b90915550506001600160a01b038216600090815260136020526040812060019081018054919290916124e1908490613a0a565b925050819055506001601160008282546124fb9190613a0a565b9091555061250990506128c8565b50604080513381526001600160a01b03841660208201527fce0c7a2a940807f7dc2ce7a615c2532e915e6c0ac9a08bc4ed9d515a710a53e291015b60405180910390a15050565b8061255a81613681565b915050612430565b61256c8383612996565b6107a482826129b0565b816001600160a01b0316836001600160a01b0316036125d75760405162461bcd60e51b815260206004820152601960248201527f4552433732313a20617070726f766520746f2063616c6c6572000000000000006044820152606401610703565b6001600160a01b03838116600081815260056020908152604080832094871680845294825291829020805460ff191686151590811790915591519182527f17307eab39ab6107e8899845ad3d59bd9653f200f220920489ca2b5937696c31910160405180910390a3505050565b61264f84848461229b565b61265b84848484612a74565b610fea5760405162461bcd60e51b815260040161070390613a1d565b6060600860040180546105e590613591565b60606126948261216d565b600082815260066020526040812080546126ad90613591565b80601f01602080910402602001604051908101604052809291908181526020018280546126d990613591565b80156127265780601f106126fb57610100808354040283529160200191612726565b820191906000526020600020905b81548152906001019060200180831161270957829003601f168201915b505050505090506000612737612677565b90508051600003612749575092915050565b81511561276357808260405160200161167a9291906136c8565b61169b84612b75565b6001600160a01b0380821660008181526013602052604081206002015490921690036127f85760005b6016548110156127f657826001600160a01b0316601682815481106127bc576127bc613655565b60009182526020909120600260079092020101546001600160a01b0316036127e45792915050565b806127ee81613681565b915050612795565b505b505060165490565b60006001600160e01b031982166380ac58cd60e01b148061283157506001600160e01b03198216635b5e139f60e01b145b806105d057506301ffc9a760e01b6001600160e01b03198316146105d0565b6001600160a01b038416158061286d57506001600160a01b038316155b6128c35760405162461bcd60e51b815260206004820152602160248201527f5468697320746f6b656e2063616e6e6f74206265207472616e736665727265646044820152601760f91b6064820152608401610703565b610fea565b600080805b60165481101561298c5781601682815481106128eb576128eb613655565b906000526020600020906007020160010154111561297a576016818154811061291657612916613655565b90600052602060002090600702016001015491508060128190555060166012548154811061294657612946613655565b6000918252602090912060026007909202010154601080546001600160a01b0319166001600160a01b039092169190911790555b8061298481613681565b9150506128cd565b5060125491505090565b6112b4828260405180602001604052806000815250612bdc565b6000828152600260205260409020546001600160a01b0316612a2b5760405162461bcd60e51b815260206004820152602e60248201527f45524337323155524953746f726167653a2055524920736574206f66206e6f6e60448201526d32bc34b9ba32b73a103a37b5b2b760911b6064820152608401610703565b6000828152600660205260409020612a438282613815565b506040518281527ff8e1a15aba9398e019f0b49df1a4fde98ee17ae345cb5f6b5e2c27f5033e8ce790602001612544565b60006001600160a01b0384163b15612b6a57604051630a85bd0160e11b81526001600160a01b0385169063150b7a0290612ab8903390899088908890600401613a6f565b6020604051808303816000875af1925050508015612af3575060408051601f3d908101601f19168201909252612af091810190613aac565b60015b612b50573d808015612b21576040519150601f19603f3d011682016040523d82523d6000602084013e612b26565b606091505b508051600003612b485760405162461bcd60e51b815260040161070390613a1d565b805181602001fd5b6001600160e01b031916630a85bd0160e11b14905061169b565b506001949350505050565b6060612b808261216d565b6000612b8a612677565b90506000815111612baa5760405180602001604052806000815250612bd5565b80612bb484612c0f565b604051602001612bc59291906136c8565b6040516020818303038152906040525b9392505050565b612be68383612ca2565b612bf36000848484612a74565b6107a45760405162461bcd60e51b815260040161070390613a1d565b60606000612c1c83612e3b565b600101905060008167ffffffffffffffff811115612c3c57612c3c61322e565b6040519080825280601f01601f191660200182016040528015612c66576020820181803683370190505b5090508181016020015b600019016f181899199a1a9b1b9c1cb0b131b232b360811b600a86061a8153600a8504945084612c7057509392505050565b6001600160a01b038216612cf85760405162461bcd60e51b815260206004820181905260248201527f4552433732313a206d696e7420746f20746865207a65726f20616464726573736044820152606401610703565b6000818152600260205260409020546001600160a01b031615612d5d5760405162461bcd60e51b815260206004820152601c60248201527f4552433732313a20746f6b656e20616c7265616479206d696e746564000000006044820152606401610703565b612d6b600083836001612850565b6000818152600260205260409020546001600160a01b031615612dd05760405162461bcd60e51b815260206004820152601c60248201527f4552433732313a20746f6b656e20616c7265616479206d696e746564000000006044820152606401610703565b6001600160a01b038216600081815260036020908152604080832080546001019055848352600290915280822080546001600160a01b0319168417905551839291907fddf252ad1be2c89b69c2b068fc378daa952ba7f163c4a11628f55a4df523b3ef908290a45050565b60008072184f03e93ff9f4daa797ed6e38ed64bf6a1f0160401b8310612e7a5772184f03e93ff9f4daa797ed6e38ed64bf6a1f0160401b830492506040015b6d04ee2d6d415b85acef81000000008310612ea6576d04ee2d6d415b85acef8100000000830492506020015b662386f26fc100008310612ec457662386f26fc10000830492506010015b6305f5e1008310612edc576305f5e100830492506008015b6127108310612ef057612710830492506004015b60648310612f02576064830492506002015b600a83106105d05760010192915050565b508054612f1f90613591565b6000825580601f10612f2f575050565b601f0160209004906000526020600020908101906121cc91905b80821115612f5d5760008155600101612f49565b5090565b6001600160e01b0319811681146121cc57600080fd5b600060208284031215612f8957600080fd5b8135612bd581612f61565b60005b83811015612faf578181015183820152602001612f97565b50506000910152565b60008151808452612fd0816020860160208601612f94565b601f01601f19169290920160200192915050565b602081526000612bd56020830184612fb8565b60006020828403121561300957600080fd5b5035919050565b80356001600160a01b038116811461205b57600080fd5b6000806040838503121561303a57600080fd5b61304383613010565b946020939093013593505050565b60008060006060848603121561306657600080fd5b61306f84613010565b925061307d60208501613010565b9150604084013590509250925092565b60006020828403121561309f57600080fd5b612bd582613010565b87815286602082015260018060a01b038616604082015260e0606082015260006130d560e0830187612fb8565b82810360808401526130e78187612fb8565b905082810360a08401526130fb8186612fb8565b91505082151560c083015298975050505050505050565b86815285602082015260c06040820152600061313160c0830187612fb8565b82810360608401526131438187612fb8565b905082810360808401526131578186612fb8565b91505082151560a0830152979650505050505050565b6020815281516020820152602082015160408201526000604083015160c0606084015261319d60e0840182612fb8565b90506060840151601f19808584030160808601526131bb8383612fb8565b925060808601519150808584030160a0860152506131d98282612fb8565b91505060a0840151151560c08401528091505092915050565b6000806040838503121561320557600080fd5b61320e83613010565b91506020830135801515811461322357600080fd5b809150509250929050565b634e487b7160e01b600052604160045260246000fd5b6000806000806080858703121561325a57600080fd5b61326385613010565b935061327160208601613010565b925060408501359150606085013567ffffffffffffffff8082111561329557600080fd5b818701915087601f8301126132a957600080fd5b8135818111156132bb576132bb61322e565b604051601f8201601f19908116603f011681019083821181831017156132e3576132e361322e565b816040528281528a60208487010111156132fc57600080fd5b82602086016020830137600060208483010152809550505050505092959194509250565b60008083601f84011261333257600080fd5b50813567ffffffffffffffff81111561334a57600080fd5b60208301915083602082850101111561336257600080fd5b9250929050565b6000806020838503121561337c57600080fd5b823567ffffffffffffffff81111561339357600080fd5b61339f85828601613320565b90969095509350505050565b60008060008060008060008060a0898b0312156133c757600080fd5b883597506133d760208a01613010565b9650604089013567ffffffffffffffff808211156133f457600080fd5b6134008c838d01613320565b909850965060608b013591508082111561341957600080fd5b6134258c838d01613320565b909650945060808b013591508082111561343e57600080fd5b5061344b8b828c01613320565b999c989b5096995094979396929594505050565b60006020808301818452808551808352604092508286019150828160051b87010184880160005b8381101561352c57888303603f190185528151805184528781015188850152868101516001600160a01b03168785015260608082015160e082870181905291906134d283880182612fb8565b92505050608080830151868303828801526134ed8382612fb8565b9250505060a080830151868303828801526135088382612fb8565b60c09485015115159790940196909652505094870194925090860190600101613486565b509098975050505050505050565b6001600160a01b038316815260406020820181905260009061169b90830184612fb8565b6000806040838503121561357157600080fd5b61357a83613010565b915061358860208401613010565b90509250929050565b600181811c908216806135a557607f821691505b6020821081036135c557634e487b7160e01b600052602260045260246000fd5b50919050565b6020808252602d908201527f4552433732313a2063616c6c6572206973206e6f7420746f6b656e206f776e6560408201526c1c881bdc88185c1c1c9bdd9959609a1b606082015260800190565b81835281816020850137506000828201602090810191909152601f909101601f19169091010190565b60208152600061169b602083018486613618565b634e487b7160e01b600052603260045260246000fd5b634e487b7160e01b600052601160045260246000fd5b6000600182016136935761369361366b565b5060010190565b6001600160a01b03841681526040602082018190526000906136bf9083018486613618565b95945050505050565b600083516136da818460208801612f94565b8351908301906136ee818360208801612f94565b01949350505050565b601f8211156107a457600081815260208120601f850160051c8101602086101561371e5750805b601f850160051c820191505b8181101561373d5782815560010161372a565b505050505050565b600019600383901b1c191660019190911b1790565b67ffffffffffffffff8311156137725761377261322e565b613786836137808354613591565b836136f7565b6000601f8411600181146137b457600085156137a25750838201355b6137ac8682613745565b84555061380e565b600083815260209020601f19861690835b828110156137e557868501358255602094850194600190920191016137c5565b50868210156138025760001960f88860031b161c19848701351681555b505060018560011b0183555b5050505050565b815167ffffffffffffffff81111561382f5761382f61322e565b6138438161383d8454613591565b846136f7565b602080601f83116001811461387257600084156138605750858301515b61386a8582613745565b86555061373d565b600085815260208120601f198616915b828110156138a157888601518255948401946001909101908401613882565b50858210156138bf5787850151600019600388901b60f8161c191681555b5050505050600190811b01905550565b818103818111156105d0576105d061366b565b8181036138ed575050565b6138f78254613591565b67ffffffffffffffff81111561390f5761390f61322e565b61391d8161383d8454613591565b6000601f82116001811461394b57600083156139395750848201545b6139438482613745565b85555061380e565b600085815260209020601f19841690600086815260209020845b838110156139855782860154825560019586019590910190602001613965565b50858310156138bf5793015460001960f8600387901b161c19169092555050600190811b01905550565b634e487b7160e01b600052603160045260246000fd5b60208082526025908201527f4552433732313a207472616e736665722066726f6d20696e636f72726563742060408201526437bbb732b960d91b606082015260800190565b808201808211156105d0576105d061366b565b60208082526032908201527f4552433732313a207472616e7366657220746f206e6f6e20455243373231526560408201527131b2b4bb32b91034b6b83632b6b2b73a32b960711b606082015260800190565b6001600160a01b0385811682528416602082015260408101839052608060608201819052600090613aa290830184612fb8565b9695505050505050565b600060208284031215613abe57600080fd5b8151612bd581612f6156fea26469706673582212207d18398d7a3d7236db641d7530fabbc3a14ee53c96e3a5da6b336231382a137e64736f6c63430008110033a2646970667358221220ee9a70f8caf8b00922dd7f1360280d8af814cbf5a01c3a52638c880f0b3956c164736f6c63430008110033",
    "linkReferences": {}
  },
  "methodIdentifiers": {
    "Moderator()": "6bf8a5f6",
    "contestToID(uint256)": "cbf56198",
    "createElection(uint256,string,string,string,string,uint256)": "ceb1e32d",
    "elections(uint256)": "5e6fef01",
    "nElections()": "ad1bc71f",
    "rc(uint256)": "649fa13f",
    "replcModerator(address)": "abbe8468",
    "retElectionID(address)": "96e39914",
    "retElections()": "b839a995",
    "wthr(address,uint256)": "36a49932"
  },
  "id": 35
}